{
	"Users/yuliyacogniteq/FlatRentSmartContract/FlatRent.sol": {
		"FlatRent": {
			"abi": [
				{
					"inputs": [],
					"name": "confirmRent",
					"outputs": [],
					"stateMutability": "nonpayable",
					"type": "function"
				},
				{
					"inputs": [],
					"name": "payRent",
					"outputs": [],
					"stateMutability": "payable",
					"type": "function"
				},
				{
					"inputs": [],
					"name": "provideFlat",
					"outputs": [],
					"stateMutability": "nonpayable",
					"type": "function"
				},
				{
					"inputs": [],
					"name": "terminateContract",
					"outputs": [],
					"stateMutability": "payable",
					"type": "function"
				}
			],
			"devdoc": {
				"kind": "dev",
				"methods": {},
				"version": 1
			},
			"evm": {
				"assembly": "    /* \"Users/yuliyacogniteq/FlatRentSmartContract/FlatRent.sol\":61:1011  contract FlatRent {... */\n  mstore(0x40, 0x80)\n  callvalue\n  dup1\n  iszero\n  tag_1\n  jumpi\n  0x00\n  dup1\n  revert\ntag_1:\n  pop\n  dataSize(sub_0)\n  dup1\n  dataOffset(sub_0)\n  0x00\n  codecopy\n  0x00\n  return\nstop\n\nsub_0: assembly {\n        /* \"Users/yuliyacogniteq/FlatRentSmartContract/FlatRent.sol\":61:1011  contract FlatRent {... */\n      mstore(0x40, 0x80)\n      jumpi(tag_1, lt(calldatasize, 0x04))\n      shr(0xe0, calldataload(0x00))\n      dup1\n      0x2fd949ca\n      eq\n      tag_2\n      jumpi\n      dup1\n      0xa6c2ee84\n      eq\n      tag_3\n      jumpi\n      dup1\n      0xa709c4fe\n      eq\n      tag_4\n      jumpi\n      dup1\n      0xfc031f36\n      eq\n      tag_5\n      jumpi\n    tag_1:\n      0x00\n      dup1\n      revert\n        /* \"Users/yuliyacogniteq/FlatRentSmartContract/FlatRent.sol\":690:848  function terminateContract() payable public {... */\n    tag_2:\n      tag_6\n      tag_7\n      jump\t// in\n    tag_6:\n      stop\n        /* \"Users/yuliyacogniteq/FlatRentSmartContract/FlatRent.sol\":208:276  function provideFlat() public {... */\n    tag_3:\n      callvalue\n      dup1\n      iszero\n      tag_8\n      jumpi\n      0x00\n      dup1\n      revert\n    tag_8:\n      pop\n      tag_9\n      tag_10\n      jump\t// in\n    tag_9:\n      stop\n        /* \"Users/yuliyacogniteq/FlatRentSmartContract/FlatRent.sol\":454:684  function payRent() payable public {... */\n    tag_4:\n      tag_11\n      tag_12\n      jump\t// in\n    tag_11:\n      stop\n        /* \"Users/yuliyacogniteq/FlatRentSmartContract/FlatRent.sol\":282:448  function confirmRent() public {... */\n    tag_5:\n      callvalue\n      dup1\n      iszero\n      tag_13\n      jumpi\n      0x00\n      dup1\n      revert\n    tag_13:\n      pop\n      tag_14\n      tag_15\n      jump\t// in\n    tag_14:\n      stop\n        /* \"Users/yuliyacogniteq/FlatRentSmartContract/FlatRent.sol\":690:848  function terminateContract() payable public {... */\n    tag_7:\n        /* \"Users/yuliyacogniteq/FlatRentSmartContract/FlatRent.sol\":762:770  landlord */\n      0x00\n      dup1\n      sload\n      swap1\n      0x0100\n      exp\n      swap1\n      div\n      0xffffffffffffffffffffffffffffffffffffffff\n      and\n        /* \"Users/yuliyacogniteq/FlatRentSmartContract/FlatRent.sol\":748:770  msg.sender == landlord */\n      0xffffffffffffffffffffffffffffffffffffffff\n      and\n        /* \"Users/yuliyacogniteq/FlatRentSmartContract/FlatRent.sol\":748:758  msg.sender */\n      caller\n        /* \"Users/yuliyacogniteq/FlatRentSmartContract/FlatRent.sol\":748:770  msg.sender == landlord */\n      0xffffffffffffffffffffffffffffffffffffffff\n      and\n      eq\n        /* \"Users/yuliyacogniteq/FlatRentSmartContract/FlatRent.sol\":748:791  msg.sender == landlord && msg.value >= 1000 */\n      dup1\n      iszero\n      tag_17\n      jumpi\n      pop\n        /* \"Users/yuliyacogniteq/FlatRentSmartContract/FlatRent.sol\":787:791  1000 */\n      0x03e8\n        /* \"Users/yuliyacogniteq/FlatRentSmartContract/FlatRent.sol\":774:783  msg.value */\n      callvalue\n        /* \"Users/yuliyacogniteq/FlatRentSmartContract/FlatRent.sol\":774:791  msg.value >= 1000 */\n      lt\n      iszero\n        /* \"Users/yuliyacogniteq/FlatRentSmartContract/FlatRent.sol\":748:791  msg.sender == landlord && msg.value >= 1000 */\n    tag_17:\n        /* \"Users/yuliyacogniteq/FlatRentSmartContract/FlatRent.sol\":744:842  if (msg.sender == landlord && msg.value >= 1000) {... */\n      iszero\n      tag_18\n      jumpi\n        /* \"Users/yuliyacogniteq/FlatRentSmartContract/FlatRent.sol\":807:831  transferTo(tenant, 1000) */\n      tag_19\n        /* \"Users/yuliyacogniteq/FlatRentSmartContract/FlatRent.sol\":818:824  tenant */\n      0x01\n      0x00\n      swap1\n      sload\n      swap1\n      0x0100\n      exp\n      swap1\n      div\n      0xffffffffffffffffffffffffffffffffffffffff\n      and\n        /* \"Users/yuliyacogniteq/FlatRentSmartContract/FlatRent.sol\":826:830  1000 */\n      0x03e8\n        /* \"Users/yuliyacogniteq/FlatRentSmartContract/FlatRent.sol\":807:817  transferTo */\n      tag_20\n        /* \"Users/yuliyacogniteq/FlatRentSmartContract/FlatRent.sol\":807:831  transferTo(tenant, 1000) */\n      jump\t// in\n    tag_19:\n        /* \"Users/yuliyacogniteq/FlatRentSmartContract/FlatRent.sol\":744:842  if (msg.sender == landlord && msg.value >= 1000) {... */\n    tag_18:\n        /* \"Users/yuliyacogniteq/FlatRentSmartContract/FlatRent.sol\":690:848  function terminateContract() payable public {... */\n      jump\t// out\n        /* \"Users/yuliyacogniteq/FlatRentSmartContract/FlatRent.sol\":208:276  function provideFlat() public {... */\n    tag_10:\n        /* \"Users/yuliyacogniteq/FlatRentSmartContract/FlatRent.sol\":259:269  msg.sender */\n      caller\n        /* \"Users/yuliyacogniteq/FlatRentSmartContract/FlatRent.sol\":248:256  landlord */\n      0x00\n      dup1\n        /* \"Users/yuliyacogniteq/FlatRentSmartContract/FlatRent.sol\":248:269  landlord = msg.sender */\n      0x0100\n      exp\n      dup2\n      sload\n      dup2\n      0xffffffffffffffffffffffffffffffffffffffff\n      mul\n      not\n      and\n      swap1\n      dup4\n      0xffffffffffffffffffffffffffffffffffffffff\n      and\n      mul\n      or\n      swap1\n      sstore\n      pop\n        /* \"Users/yuliyacogniteq/FlatRentSmartContract/FlatRent.sol\":208:276  function provideFlat() public {... */\n      jump\t// out\n        /* \"Users/yuliyacogniteq/FlatRentSmartContract/FlatRent.sol\":454:684  function payRent() payable public {... */\n    tag_12:\n        /* \"Users/yuliyacogniteq/FlatRentSmartContract/FlatRent.sol\":516:524  landlord */\n      0x00\n      dup1\n      sload\n      swap1\n      0x0100\n      exp\n      swap1\n      div\n      0xffffffffffffffffffffffffffffffffffffffff\n      and\n        /* \"Users/yuliyacogniteq/FlatRentSmartContract/FlatRent.sol\":502:524  msg.sender != landlord */\n      0xffffffffffffffffffffffffffffffffffffffff\n      and\n        /* \"Users/yuliyacogniteq/FlatRentSmartContract/FlatRent.sol\":502:512  msg.sender */\n      caller\n        /* \"Users/yuliyacogniteq/FlatRentSmartContract/FlatRent.sol\":502:524  msg.sender != landlord */\n      0xffffffffffffffffffffffffffffffffffffffff\n      and\n      eq\n      iszero\n        /* \"Users/yuliyacogniteq/FlatRentSmartContract/FlatRent.sol\":502:544  msg.sender != landlord && msg.value >= 300 */\n      dup1\n      iszero\n      tag_23\n      jumpi\n      pop\n        /* \"Users/yuliyacogniteq/FlatRentSmartContract/FlatRent.sol\":541:544  300 */\n      0x012c\n        /* \"Users/yuliyacogniteq/FlatRentSmartContract/FlatRent.sol\":528:537  msg.value */\n      callvalue\n        /* \"Users/yuliyacogniteq/FlatRentSmartContract/FlatRent.sol\":528:544  msg.value >= 300 */\n      lt\n      iszero\n        /* \"Users/yuliyacogniteq/FlatRentSmartContract/FlatRent.sol\":502:544  msg.sender != landlord && msg.value >= 300 */\n    tag_23:\n        /* \"Users/yuliyacogniteq/FlatRentSmartContract/FlatRent.sol\":502:575  msg.sender != landlord && msg.value >= 300 && block.timestamp <= deadline */\n      dup1\n      iszero\n      tag_24\n      jumpi\n      pop\n        /* \"Users/yuliyacogniteq/FlatRentSmartContract/FlatRent.sol\":567:575  deadline */\n      sload(0x03)\n        /* \"Users/yuliyacogniteq/FlatRentSmartContract/FlatRent.sol\":548:563  block.timestamp */\n      timestamp\n        /* \"Users/yuliyacogniteq/FlatRentSmartContract/FlatRent.sol\":548:575  block.timestamp <= deadline */\n      gt\n      iszero\n        /* \"Users/yuliyacogniteq/FlatRentSmartContract/FlatRent.sol\":502:575  msg.sender != landlord && msg.value >= 300 && block.timestamp <= deadline */\n    tag_24:\n        /* \"Users/yuliyacogniteq/FlatRentSmartContract/FlatRent.sol\":498:678  if (msg.sender != landlord && msg.value >= 300 && block.timestamp <= deadline ) {... */\n      iszero\n      tag_25\n      jumpi\n        /* \"Users/yuliyacogniteq/FlatRentSmartContract/FlatRent.sol\":592:617  transferTo(landlord, 300) */\n      tag_26\n        /* \"Users/yuliyacogniteq/FlatRentSmartContract/FlatRent.sol\":603:611  landlord */\n      0x00\n      dup1\n      sload\n      swap1\n      0x0100\n      exp\n      swap1\n      div\n      0xffffffffffffffffffffffffffffffffffffffff\n      and\n        /* \"Users/yuliyacogniteq/FlatRentSmartContract/FlatRent.sol\":613:616  300 */\n      0x012c\n        /* \"Users/yuliyacogniteq/FlatRentSmartContract/FlatRent.sol\":592:602  transferTo */\n      tag_20\n        /* \"Users/yuliyacogniteq/FlatRentSmartContract/FlatRent.sol\":592:617  transferTo(landlord, 300) */\n      jump\t// in\n    tag_26:\n        /* \"Users/yuliyacogniteq/FlatRentSmartContract/FlatRent.sol\":660:667  30 days */\n      0x278d00\n        /* \"Users/yuliyacogniteq/FlatRentSmartContract/FlatRent.sol\":642:657  block.timestamp */\n      timestamp\n        /* \"Users/yuliyacogniteq/FlatRentSmartContract/FlatRent.sol\":642:667  block.timestamp + 30 days */\n      tag_27\n      swap2\n      swap1\n      tag_28\n      jump\t// in\n    tag_27:\n        /* \"Users/yuliyacogniteq/FlatRentSmartContract/FlatRent.sol\":631:639  deadline */\n      0x03\n        /* \"Users/yuliyacogniteq/FlatRentSmartContract/FlatRent.sol\":631:667  deadline = block.timestamp + 30 days */\n      dup2\n      swap1\n      sstore\n      pop\n        /* \"Users/yuliyacogniteq/FlatRentSmartContract/FlatRent.sol\":498:678  if (msg.sender != landlord && msg.value >= 300 && block.timestamp <= deadline ) {... */\n    tag_25:\n        /* \"Users/yuliyacogniteq/FlatRentSmartContract/FlatRent.sol\":454:684  function payRent() payable public {... */\n      jump\t// out\n        /* \"Users/yuliyacogniteq/FlatRentSmartContract/FlatRent.sol\":282:448  function confirmRent() public {... */\n    tag_15:\n        /* \"Users/yuliyacogniteq/FlatRentSmartContract/FlatRent.sol\":340:348  landlord */\n      0x00\n      dup1\n      sload\n      swap1\n      0x0100\n      exp\n      swap1\n      div\n      0xffffffffffffffffffffffffffffffffffffffff\n      and\n        /* \"Users/yuliyacogniteq/FlatRentSmartContract/FlatRent.sol\":326:348  msg.sender != landlord */\n      0xffffffffffffffffffffffffffffffffffffffff\n      and\n        /* \"Users/yuliyacogniteq/FlatRentSmartContract/FlatRent.sol\":326:336  msg.sender */\n      caller\n        /* \"Users/yuliyacogniteq/FlatRentSmartContract/FlatRent.sol\":326:348  msg.sender != landlord */\n      0xffffffffffffffffffffffffffffffffffffffff\n      and\n      eq\n        /* \"Users/yuliyacogniteq/FlatRentSmartContract/FlatRent.sol\":322:442  if (msg.sender != landlord) {... */\n      tag_30\n      jumpi\n        /* \"Users/yuliyacogniteq/FlatRentSmartContract/FlatRent.sol\":373:383  msg.sender */\n      caller\n        /* \"Users/yuliyacogniteq/FlatRentSmartContract/FlatRent.sol\":364:370  tenant */\n      0x01\n      0x00\n        /* \"Users/yuliyacogniteq/FlatRentSmartContract/FlatRent.sol\":364:383  tenant = msg.sender */\n      0x0100\n      exp\n      dup2\n      sload\n      dup2\n      0xffffffffffffffffffffffffffffffffffffffff\n      mul\n      not\n      and\n      swap1\n      dup4\n      0xffffffffffffffffffffffffffffffffffffffff\n      and\n      mul\n      or\n      swap1\n      sstore\n      pop\n        /* \"Users/yuliyacogniteq/FlatRentSmartContract/FlatRent.sol\":416:431  block.timestamp */\n      timestamp\n        /* \"Users/yuliyacogniteq/FlatRentSmartContract/FlatRent.sol\":397:413  createdTimeStamp */\n      0x02\n        /* \"Users/yuliyacogniteq/FlatRentSmartContract/FlatRent.sol\":397:431  createdTimeStamp = block.timestamp */\n      dup2\n      swap1\n      sstore\n      pop\n        /* \"Users/yuliyacogniteq/FlatRentSmartContract/FlatRent.sol\":322:442  if (msg.sender != landlord) {... */\n    tag_30:\n        /* \"Users/yuliyacogniteq/FlatRentSmartContract/FlatRent.sol\":282:448  function confirmRent() public {... */\n      jump\t// out\n        /* \"Users/yuliyacogniteq/FlatRentSmartContract/FlatRent.sol\":853:1009  function transferTo(address targetAddress, uint amount) private {... */\n    tag_20:\n        /* \"Users/yuliyacogniteq/FlatRentSmartContract/FlatRent.sol\":927:946  address payable _to */\n      0x00\n        /* \"Users/yuliyacogniteq/FlatRentSmartContract/FlatRent.sol\":957:970  targetAddress */\n      dup3\n        /* \"Users/yuliyacogniteq/FlatRentSmartContract/FlatRent.sol\":927:971  address payable _to = payable(targetAddress) */\n      swap1\n      pop\n        /* \"Users/yuliyacogniteq/FlatRentSmartContract/FlatRent.sol\":981:984  _to */\n      dup1\n        /* \"Users/yuliyacogniteq/FlatRentSmartContract/FlatRent.sol\":981:993  _to.transfer */\n      0xffffffffffffffffffffffffffffffffffffffff\n      and\n        /* \"Users/yuliyacogniteq/FlatRentSmartContract/FlatRent.sol\":981:1001  _to.transfer(amount) */\n      0x08fc\n        /* \"Users/yuliyacogniteq/FlatRentSmartContract/FlatRent.sol\":994:1000  amount */\n      dup4\n        /* \"Users/yuliyacogniteq/FlatRentSmartContract/FlatRent.sol\":981:1001  _to.transfer(amount) */\n      swap1\n      dup2\n      iszero\n      mul\n      swap1\n      mload(0x40)\n      0x00\n      mload(0x40)\n      dup1\n      dup4\n      sub\n      dup2\n      dup6\n      dup9\n      dup9\n      call\n      swap4\n      pop\n      pop\n      pop\n      pop\n      iszero\n      dup1\n      iszero\n      tag_33\n      jumpi\n      returndatasize\n      0x00\n      dup1\n      returndatacopy\n      revert(0x00, returndatasize)\n    tag_33:\n      pop\n        /* \"Users/yuliyacogniteq/FlatRentSmartContract/FlatRent.sol\":917:1009  {... */\n      pop\n        /* \"Users/yuliyacogniteq/FlatRentSmartContract/FlatRent.sol\":853:1009  function transferTo(address targetAddress, uint amount) private {... */\n      pop\n      pop\n      jump\t// out\n        /* \"#utility.yul\":7:312   */\n    tag_28:\n        /* \"#utility.yul\":47:50   */\n      0x00\n        /* \"#utility.yul\":66:86   */\n      tag_36\n        /* \"#utility.yul\":84:85   */\n      dup3\n        /* \"#utility.yul\":66:86   */\n      tag_37\n      jump\t// in\n    tag_36:\n        /* \"#utility.yul\":61:86   */\n      swap2\n      pop\n        /* \"#utility.yul\":100:120   */\n      tag_38\n        /* \"#utility.yul\":118:119   */\n      dup4\n        /* \"#utility.yul\":100:120   */\n      tag_37\n      jump\t// in\n    tag_38:\n        /* \"#utility.yul\":95:120   */\n      swap3\n      pop\n        /* \"#utility.yul\":254:255   */\n      dup3\n        /* \"#utility.yul\":186:252   */\n      0xffffffffffffffffffffffffffffffffffffffffffffffffffffffffffffffff\n        /* \"#utility.yul\":182:256   */\n      sub\n        /* \"#utility.yul\":179:180   */\n      dup3\n        /* \"#utility.yul\":176:257   */\n      gt\n        /* \"#utility.yul\":173:280   */\n      iszero\n      tag_39\n      jumpi\n        /* \"#utility.yul\":260:278   */\n      tag_40\n      tag_41\n      jump\t// in\n    tag_40:\n        /* \"#utility.yul\":173:280   */\n    tag_39:\n        /* \"#utility.yul\":304:305   */\n      dup3\n        /* \"#utility.yul\":301:302   */\n      dup3\n        /* \"#utility.yul\":297:306   */\n      add\n        /* \"#utility.yul\":290:306   */\n      swap1\n      pop\n        /* \"#utility.yul\":7:312   */\n      swap3\n      swap2\n      pop\n      pop\n      jump\t// out\n        /* \"#utility.yul\":318:395   */\n    tag_37:\n        /* \"#utility.yul\":355:362   */\n      0x00\n        /* \"#utility.yul\":384:389   */\n      dup2\n        /* \"#utility.yul\":373:389   */\n      swap1\n      pop\n        /* \"#utility.yul\":318:395   */\n      swap2\n      swap1\n      pop\n      jump\t// out\n        /* \"#utility.yul\":401:581   */\n    tag_41:\n        /* \"#utility.yul\":449:526   */\n      0x4e487b7100000000000000000000000000000000000000000000000000000000\n        /* \"#utility.yul\":446:447   */\n      0x00\n        /* \"#utility.yul\":439:527   */\n      mstore\n        /* \"#utility.yul\":546:550   */\n      0x11\n        /* \"#utility.yul\":543:544   */\n      0x04\n        /* \"#utility.yul\":536:551   */\n      mstore\n        /* \"#utility.yul\":570:574   */\n      0x24\n        /* \"#utility.yul\":567:568   */\n      0x00\n        /* \"#utility.yul\":560:575   */\n      revert\n\n    auxdata: 0xa2646970667358221220e1341aba93d52b203804da75760548271a0c790209ebb778f836439caa0c40ea64736f6c63430008070033\n}\n",
				"bytecode": {
					"linkReferences": {},
					"object": "608060405234801561001057600080fd5b506103c4806100206000396000f3fe60806040526004361061003f5760003560e01c80632fd949ca14610044578063a6c2ee841461004e578063a709c4fe14610065578063fc031f361461006f575b600080fd5b61004c610086565b005b34801561005a57600080fd5b50610063610119565b005b61006d61015b565b005b34801561007b57600080fd5b50610084610210565b005b60008054906101000a900473ffffffffffffffffffffffffffffffffffffffff1673ffffffffffffffffffffffffffffffffffffffff163373ffffffffffffffffffffffffffffffffffffffff161480156100e357506103e83410155b1561011757610116600160009054906101000a900473ffffffffffffffffffffffffffffffffffffffff166103e86102ae565b5b565b336000806101000a81548173ffffffffffffffffffffffffffffffffffffffff021916908373ffffffffffffffffffffffffffffffffffffffff160217905550565b60008054906101000a900473ffffffffffffffffffffffffffffffffffffffff1673ffffffffffffffffffffffffffffffffffffffff163373ffffffffffffffffffffffffffffffffffffffff16141580156101b9575061012c3410155b80156101c757506003544211155b1561020e576101f860008054906101000a900473ffffffffffffffffffffffffffffffffffffffff1661012c6102ae565b62278d004261020791906102ff565b6003819055505b565b60008054906101000a900473ffffffffffffffffffffffffffffffffffffffff1673ffffffffffffffffffffffffffffffffffffffff163373ffffffffffffffffffffffffffffffffffffffff16146102ac5733600160006101000a81548173ffffffffffffffffffffffffffffffffffffffff021916908373ffffffffffffffffffffffffffffffffffffffff160217905550426002819055505b565b60008290508073ffffffffffffffffffffffffffffffffffffffff166108fc839081150290604051600060405180830381858888f193505050501580156102f9573d6000803e3d6000fd5b50505050565b600061030a82610355565b915061031583610355565b9250827fffffffffffffffffffffffffffffffffffffffffffffffffffffffffffffffff0382111561034a5761034961035f565b5b828201905092915050565b6000819050919050565b7f4e487b7100000000000000000000000000000000000000000000000000000000600052601160045260246000fdfea2646970667358221220e1341aba93d52b203804da75760548271a0c790209ebb778f836439caa0c40ea64736f6c63430008070033",
					"opcodes": "PUSH1 0x80 PUSH1 0x40 MSTORE CALLVALUE DUP1 ISZERO PUSH2 0x10 JUMPI PUSH1 0x0 DUP1 REVERT JUMPDEST POP PUSH2 0x3C4 DUP1 PUSH2 0x20 PUSH1 0x0 CODECOPY PUSH1 0x0 RETURN INVALID PUSH1 0x80 PUSH1 0x40 MSTORE PUSH1 0x4 CALLDATASIZE LT PUSH2 0x3F JUMPI PUSH1 0x0 CALLDATALOAD PUSH1 0xE0 SHR DUP1 PUSH4 0x2FD949CA EQ PUSH2 0x44 JUMPI DUP1 PUSH4 0xA6C2EE84 EQ PUSH2 0x4E JUMPI DUP1 PUSH4 0xA709C4FE EQ PUSH2 0x65 JUMPI DUP1 PUSH4 0xFC031F36 EQ PUSH2 0x6F JUMPI JUMPDEST PUSH1 0x0 DUP1 REVERT JUMPDEST PUSH2 0x4C PUSH2 0x86 JUMP JUMPDEST STOP JUMPDEST CALLVALUE DUP1 ISZERO PUSH2 0x5A JUMPI PUSH1 0x0 DUP1 REVERT JUMPDEST POP PUSH2 0x63 PUSH2 0x119 JUMP JUMPDEST STOP JUMPDEST PUSH2 0x6D PUSH2 0x15B JUMP JUMPDEST STOP JUMPDEST CALLVALUE DUP1 ISZERO PUSH2 0x7B JUMPI PUSH1 0x0 DUP1 REVERT JUMPDEST POP PUSH2 0x84 PUSH2 0x210 JUMP JUMPDEST STOP JUMPDEST PUSH1 0x0 DUP1 SLOAD SWAP1 PUSH2 0x100 EXP SWAP1 DIV PUSH20 0xFFFFFFFFFFFFFFFFFFFFFFFFFFFFFFFFFFFFFFFF AND PUSH20 0xFFFFFFFFFFFFFFFFFFFFFFFFFFFFFFFFFFFFFFFF AND CALLER PUSH20 0xFFFFFFFFFFFFFFFFFFFFFFFFFFFFFFFFFFFFFFFF AND EQ DUP1 ISZERO PUSH2 0xE3 JUMPI POP PUSH2 0x3E8 CALLVALUE LT ISZERO JUMPDEST ISZERO PUSH2 0x117 JUMPI PUSH2 0x116 PUSH1 0x1 PUSH1 0x0 SWAP1 SLOAD SWAP1 PUSH2 0x100 EXP SWAP1 DIV PUSH20 0xFFFFFFFFFFFFFFFFFFFFFFFFFFFFFFFFFFFFFFFF AND PUSH2 0x3E8 PUSH2 0x2AE JUMP JUMPDEST JUMPDEST JUMP JUMPDEST CALLER PUSH1 0x0 DUP1 PUSH2 0x100 EXP DUP2 SLOAD DUP2 PUSH20 0xFFFFFFFFFFFFFFFFFFFFFFFFFFFFFFFFFFFFFFFF MUL NOT AND SWAP1 DUP4 PUSH20 0xFFFFFFFFFFFFFFFFFFFFFFFFFFFFFFFFFFFFFFFF AND MUL OR SWAP1 SSTORE POP JUMP JUMPDEST PUSH1 0x0 DUP1 SLOAD SWAP1 PUSH2 0x100 EXP SWAP1 DIV PUSH20 0xFFFFFFFFFFFFFFFFFFFFFFFFFFFFFFFFFFFFFFFF AND PUSH20 0xFFFFFFFFFFFFFFFFFFFFFFFFFFFFFFFFFFFFFFFF AND CALLER PUSH20 0xFFFFFFFFFFFFFFFFFFFFFFFFFFFFFFFFFFFFFFFF AND EQ ISZERO DUP1 ISZERO PUSH2 0x1B9 JUMPI POP PUSH2 0x12C CALLVALUE LT ISZERO JUMPDEST DUP1 ISZERO PUSH2 0x1C7 JUMPI POP PUSH1 0x3 SLOAD TIMESTAMP GT ISZERO JUMPDEST ISZERO PUSH2 0x20E JUMPI PUSH2 0x1F8 PUSH1 0x0 DUP1 SLOAD SWAP1 PUSH2 0x100 EXP SWAP1 DIV PUSH20 0xFFFFFFFFFFFFFFFFFFFFFFFFFFFFFFFFFFFFFFFF AND PUSH2 0x12C PUSH2 0x2AE JUMP JUMPDEST PUSH3 0x278D00 TIMESTAMP PUSH2 0x207 SWAP2 SWAP1 PUSH2 0x2FF JUMP JUMPDEST PUSH1 0x3 DUP2 SWAP1 SSTORE POP JUMPDEST JUMP JUMPDEST PUSH1 0x0 DUP1 SLOAD SWAP1 PUSH2 0x100 EXP SWAP1 DIV PUSH20 0xFFFFFFFFFFFFFFFFFFFFFFFFFFFFFFFFFFFFFFFF AND PUSH20 0xFFFFFFFFFFFFFFFFFFFFFFFFFFFFFFFFFFFFFFFF AND CALLER PUSH20 0xFFFFFFFFFFFFFFFFFFFFFFFFFFFFFFFFFFFFFFFF AND EQ PUSH2 0x2AC JUMPI CALLER PUSH1 0x1 PUSH1 0x0 PUSH2 0x100 EXP DUP2 SLOAD DUP2 PUSH20 0xFFFFFFFFFFFFFFFFFFFFFFFFFFFFFFFFFFFFFFFF MUL NOT AND SWAP1 DUP4 PUSH20 0xFFFFFFFFFFFFFFFFFFFFFFFFFFFFFFFFFFFFFFFF AND MUL OR SWAP1 SSTORE POP TIMESTAMP PUSH1 0x2 DUP2 SWAP1 SSTORE POP JUMPDEST JUMP JUMPDEST PUSH1 0x0 DUP3 SWAP1 POP DUP1 PUSH20 0xFFFFFFFFFFFFFFFFFFFFFFFFFFFFFFFFFFFFFFFF AND PUSH2 0x8FC DUP4 SWAP1 DUP2 ISZERO MUL SWAP1 PUSH1 0x40 MLOAD PUSH1 0x0 PUSH1 0x40 MLOAD DUP1 DUP4 SUB DUP2 DUP6 DUP9 DUP9 CALL SWAP4 POP POP POP POP ISZERO DUP1 ISZERO PUSH2 0x2F9 JUMPI RETURNDATASIZE PUSH1 0x0 DUP1 RETURNDATACOPY RETURNDATASIZE PUSH1 0x0 REVERT JUMPDEST POP POP POP POP JUMP JUMPDEST PUSH1 0x0 PUSH2 0x30A DUP3 PUSH2 0x355 JUMP JUMPDEST SWAP2 POP PUSH2 0x315 DUP4 PUSH2 0x355 JUMP JUMPDEST SWAP3 POP DUP3 PUSH32 0xFFFFFFFFFFFFFFFFFFFFFFFFFFFFFFFFFFFFFFFFFFFFFFFFFFFFFFFFFFFFFFFF SUB DUP3 GT ISZERO PUSH2 0x34A JUMPI PUSH2 0x349 PUSH2 0x35F JUMP JUMPDEST JUMPDEST DUP3 DUP3 ADD SWAP1 POP SWAP3 SWAP2 POP POP JUMP JUMPDEST PUSH1 0x0 DUP2 SWAP1 POP SWAP2 SWAP1 POP JUMP JUMPDEST PUSH32 0x4E487B7100000000000000000000000000000000000000000000000000000000 PUSH1 0x0 MSTORE PUSH1 0x11 PUSH1 0x4 MSTORE PUSH1 0x24 PUSH1 0x0 REVERT INVALID LOG2 PUSH5 0x6970667358 0x22 SLT KECCAK256 0xE1 CALLVALUE BYTE 0xBA SWAP4 0xD5 0x2B KECCAK256 CODESIZE DIV 0xDA PUSH22 0x760548271A0C790209EBB778F836439CAA0C40EA6473 PUSH16 0x6C634300080700330000000000000000 "
				},
				"gasEstimates": {
					"creation": {
						"codeDepositCost": "192800",
						"executionCost": "238",
						"totalCost": "193038"
					},
					"external": {
						"confirmRent()": "48734",
						"payRent()": "infinite",
						"provideFlat()": "24410",
						"terminateContract()": "infinite"
					},
					"internal": {
						"transferTo(address,uint256)": "infinite"
					}
				},
				"methodIdentifiers": {
					"confirmRent()": "fc031f36",
					"payRent()": "a709c4fe",
					"provideFlat()": "a6c2ee84",
					"terminateContract()": "2fd949ca"
				}
			},
			"storageLayout": {
				"storage": [
					{
						"astId": 3,
						"contract": "Users/yuliyacogniteq/FlatRentSmartContract/FlatRent.sol:FlatRent",
						"label": "landlord",
						"offset": 0,
						"slot": "0",
						"type": "t_address"
					},
					{
						"astId": 5,
						"contract": "Users/yuliyacogniteq/FlatRentSmartContract/FlatRent.sol:FlatRent",
						"label": "tenant",
						"offset": 0,
						"slot": "1",
						"type": "t_address"
					},
					{
						"astId": 7,
						"contract": "Users/yuliyacogniteq/FlatRentSmartContract/FlatRent.sol:FlatRent",
						"label": "createdTimeStamp",
						"offset": 0,
						"slot": "2",
						"type": "t_uint256"
					},
					{
						"astId": 9,
						"contract": "Users/yuliyacogniteq/FlatRentSmartContract/FlatRent.sol:FlatRent",
						"label": "deadline",
						"offset": 0,
						"slot": "3",
						"type": "t_uint256"
					}
				],
				"types": {
					"t_address": {
						"encoding": "inplace",
						"label": "address",
						"numberOfBytes": "20"
					},
					"t_uint256": {
						"encoding": "inplace",
						"label": "uint256",
						"numberOfBytes": "32"
					}
				}
			},
			"userdoc": {
				"kind": "user",
				"methods": {},
				"version": 1
			}
		}
	}
}